:100000000C942C010C9449010C9449010C94490165
:100010000C9449010C9449010C9449010C94490138
:100020000C9449010C9449010C9449010C94490128
:100030000C9449010C9449010C9449010C94490118
:100040000C94FB020C9449010C9449010C94490155
:100050000C9449010C9449010C9449010C944901F8
:100060000C9449010C9449010C9449010C944901E8
:100070000C9449010C9449010C94490100000000C2
:100080000000005F00000003000300143E143E1453
:10009000242A7F2A124333086661364955225000CC
:1000A00005030000001C2241000041221C0014082E
:1000B0003E081408083E08080050300000080808F0
:1000C0000808006060000020100804023E51494505
:1000D0003E0004027F0042615149462241494936AF
:1000E0001814127F1027454545393E4949493201C8
:1000F000017109073649494936264949493E0036C2
:100100003600000056360000081422410014141472
:100110001414004122140802015109063E415955A8
:100120005E7E0909097E7F494949363E41414122A7
:100130007F4141413E7F494949417F090909013ECB
:100140004141493A7F0808087F00417F4100304023
:1001500040403F7F081422417F404040407F020CD6
:10016000027F7F0204087F3E4141413E7F09090929
:10017000061E2121215E7F09090976264949493257
:1001800001017F01013F4040403F1F2040201F7F71
:100190002010207F41221C2241070870080761516E
:1001A000494543007F41000002040810200000413F
:1001B0007F0004020102044040404040000102046C
:1001C0000020545454787F444444383844444444D0
:1001D000384444447F385454541804047E050508B8
:1001E0005454543C7F0804047800447D400020406F
:1001F000443D007F1028440000417F40007C04788B
:1002000004787C0804047838444444387C1414147A
:1002100008081414147C007C080404485454542026
:1002200004043F44443C4040207C1C2040201C3CB3
:100230004030403C44281028440C5050503C44640A
:10024000544C44000836414100007F0000414136D3
:10025000080002010204020011241FBECFEFD0E10A
:10026000DEBFCDBF11E0A0E0B1E0EEE4F4E102C0FA
:1002700005900D92AE36B107D9F711E0AEE6B1E0C8
:1002800001C01D92A538B107E1F70E94CE050C947C
:10029000250A0C9400002FEF3FEF3093720120935A
:1002A000710182E090E09093740180937301109249
:1002B0007601109275018CEC9CEC90937801809300
:1002C000770130937A01209379018FE190E0909348
:1002D0007C0180937B010895CF92DF92EF92FF9291
:1002E0000F931F93CF93DF93DC01C8B0D7B0F8947E
:1002F000E0907D01F0907E0180917D0190917E01E2
:100300008170907090937E0180937D017894F59434
:10031000E7941B96FC92EE921A9751985998509A2E
:10032000589A5098589A3A9A429A3B9A439A3C9AC9
:10033000449A3D9A459888EB9BE0FC013197F1F790
:1003400049B150E001E010E0402751274170507062
:1003500015965C934E9314973A9A429A3B9A439A15
:100360003C9A44983D9A459AFC013197F1F7E9B1DE
:10037000F0E0E027F127E170F0701396FC93EE9324
:1003800012973A9A429A3B9A43983C9A449A3D9AD9
:10039000459AEC012197F1F769B170E06027712768
:1003A0006170707017967C936E9316973A9A429884
:1003B0003B9A439A3C9A449A3D9A459AEC0121977C
:1003C000F1F729B130E020273127217030701196E4
:1003D0003C932E9350985898519A599A5198599AFB
:1003E0003A9842983B9843983C9A44983D9845984F
:1003F0000197F1F789B190E096958795802791272D
:100400008170907019969C938E9318974E0F5F1F72
:100410004E0D5F1D460F571F420F531F519A59989B
:100420003A98429A3B98439AD7B8C8B8480F591F90
:100430001D965C934E931C97DF91CF911F910F9166
:10044000FF90EF90DF90CF900895AF92BF92CF9240
:10045000DF92EF92FF920F931F93DF93CF93CDB76D
:10046000DEB760970FB6F894DEBF0FBECDBF29830D
:100470003A834B835C836D837E838F839887A986C1
:10048000BA86CB86DC86ED86FE860F87188BAD811B
:10049000BE810B811C81E980FA804F85588969856E
:1004A0007A85EB85FC852F8138858D859E85821721
:1004B000930770F4A417B50758F46017710740F458
:1004C00020E030E0EE16FF0628F421E030E002C024
:1004D00020E030E0C90160960FB6F894DEBF0FBE91
:1004E000CDBFCF91DF911F910F91FF90EF90DF90E3
:1004F000CF90BF90AF900895AF92BF92CF92DF920E
:10050000EF92FF920F931F93DF93CF93CDB7DEB798
:1005100060970FB6F894DEBF0FBECDBF29833A8334
:100520004B835C836D837E838F839887A986BA868D
:10053000CB86DC86ED86FE860F87188BAF81B8856B
:1005400009811A81EB80FC804F85588969857A85FD
:10055000EB85FC852D813E818D859E852817390789
:1005600078F04A175B0760F00617170748F080E03D
:1005700090E0EE15FF0510F081E090E09C0102C0D4
:1005800020E030E0C90160960FB6F894DEBF0FBEE0
:10059000CDBFCF91DF911F910F91FF90EF90DF9032
:1005A000CF90BF90AF900895FC0180819181860F1C
:1005B000971F9183808382819381860F971F9383F6
:1005C000828384819581840F951F9583848386819E
:1005D0009781840F951F97838683089582E084BD59
:1005E00083E085BD8BEB87BDEEE6F0E08081826025
:1005F0008083789408951F920F920FB60F92112462
:100600002F933F934F935F936F937F938F939F931A
:1006100077B168B15AB14BB11AB81BB83A9A429A3D
:100620003B9A439A3A98429A3B98439A50985898E2
:10063000519A59988CE08A95F1F786B190E083FD44
:1006400093E082FF02C081E0982780916E01891BB0
:10065000282F332727FD309520FF0FC090936E0180
:1006600080917D0190917E01019722703070820F00
:10067000931F90937E0180937D0177B968B95AB931
:100680004BB9109878949F918F917F916F915F9162
:100690004F913F912F910F900FBE0F901F90189583
:1006A000F89420917D0130917E0180917D0190919F
:1006B0007E018170907090937E0180937D0178948B
:1006C00035952795C90108951F93182F8A3019F47D
:1006D0008DE00E9464038091C80085FFFCCF1093D9
:1006E000CE00212F332727FD3095C9011F91089592
:1006F0008091C80087FFFCCF8091CE0090E00895E4
:100700001092CD008DE48093CC0088E18093C900E5
:1007100086E08093CA008FE191E0909382018093FC
:100720008101909384018093830181E191E0909312
:10073000800180937F010895CF93DF93EC01DC016A
:100740000D900020E9F71197A81BB90B40E050E08D
:1007500020E030E00AC0FE01E20FF31F808186171F
:1007600011F44F5F5F4F2F5F3F4F2A173B079CF3FA
:10077000CA01DF91CF9108956F927F928F929F92DD
:10078000AF92BF92CF92DF92EF92FF920F931F939F
:10079000DF93CF93CDB7DEB760970FB6F894DEBF87
:1007A0000FBECDBF29873A874B875C876D877E87D1
:1007B0008F87988BF22E932EE42E852ED62E772EB1
:1007C000C82E692EF9823A83EB825C83DD827E83B8
:1007D000DF8278878D2D972F0E948C062F2DF9822E
:1007E0009A824E2DEB828C826C2DCD826E82CF82CE
:1007F0006886392D582D762D8C2D962D0E948C06CD
:100800002F2DF9829A824F2DFB829C826D2DDD82E5
:100810007E82CF826886392D592D772D8C2D962D8D
:100820000E948C062E2DE9828A824E2DEB828C82CC
:100830006D2DDD827E82CF826886382D582D772DF2
:100840008C2D962D0E948C0660960FB6F894DEBF14
:100850000FBECDBFCF91DF911F910F91FF90EF9011
:10086000DF90CF90BF90AF909F908F907F906F90D0
:10087000089570933401609333015093360140938F
:1008800035010E94770808952F923F924F925F9210
:100890006F927F928F929F92AF92BF92CF92DF9290
:1008A000EF92FF920F931F93DF93CF93CDB7DEB7F5
:1008B000A0970FB6F894DEBF0FBECDBFF82EE92E7D
:1008C0005B013A0129012DB73EB73E8F2D8F8091F4
:1008D0007301909174019C8F8B8FEF2DFE2DDF01A2
:1008E0000D900020E9F76D010894C108D108CE1AD7
:1008F000DF0A8F2D9E2D6BE30E949C031C014C018F
:100900000894811C911CC401880F991FEDB7FEB794
:10091000E81BF90B0FB6F894FEBF0FBEEDBF0DB785
:100920001EB70F5F1F4F8F2D9E2D60E071E00E945C
:10093000F909AC010F8F18A30BC0D8014D935D933B
:100940008D0180E090E060E071E00E94F909AC0167
:100950004115510591F7B7FE03C0AA24BB2404C07A
:10096000A814B9040CF051011A8619861C861B863E
:100970001E861D86188A1F861A8A198A1C8A1B8A57
:100980001E8A1D8AE0913701F0913801FA8FE98FB4
:100990002091390130913A01388F2F8B8E01075FFA
:1009A0001F4FC8010E946C01780100E315E706C0E3
:1009B000C7010E946C01C8010197F1F78D899E89DA
:1009C000892BB1F7642D5E824D82262D7A82698251
:1009D000C601880F991F8C0D9D1D880F991F0696C3
:1009E000860D971D4AEF5FEFDA018A9EA0018B9E6C
:1009F000500D9A9E500D1124840F951F0894811C50
:100A0000911CEB8DFC8D8E9EA0018F9E500D9E9EA5
:100A1000500D1124089481089108840F951F482FC8
:100A20009C838B83CF01880F991F0796840D951D9A
:100A300098878F8300917101109172013A815C81D6
:100A40007E8198850E948C062B8C3C8C260C371C52
:100A50006B8C7C8C640C751C4CE2442E41E0542E53
:100A6000CE0109960E946C018B899C898A0D9B1D81
:100A7000B4010E94D2095C0197FF02C0A80CB91C06
:100A800061018F8D98A19C018901EE24FF2449C04A
:100A9000EA14FB0469F080917501909176019093BE
:100AA00038018093370180917701909178010CC0D3
:100AB0008091790190917A01909338018093370168
:100AC00080917B0190917C0190933A018093390150
:100AD000D8018D919C91D0923401C09233017092D3
:100AE0003601609235010E947708F801A081B1813A
:100AF000FD0101900020E9F73197EA1BFB0BCF01C4
:100B0000880F991F8E0F9F1F880F991FC80ED91E1F
:100B10002B8D3C8DC20ED31E0894E11CF11C0E5F80
:100B20001F4FE814F9040CF4B3CF29893A8988EEF1
:100B300093E0F2013197F1F70197D9F7232B09F4EC
:100B40008FCF898D9A8D9093380180933701AF892B
:100B5000B88DB0933A01A0933901C501ED8DFE8D9A
:100B60000FB6F894FEBF0FBEEDBFA0960FB6F89477
:100B7000DEBF0FBECDBFCF91DF911F910F91FF90D0
:100B8000EF90DF90CF90BF90AF909F908F907F902D
:100B90006F905F904F903F902F90089585B7806839
:100BA00085BF85B7806885BF0E9480030E94FD05D0
:100BB00083E090E00E9409060E94EE020E944B0131
:100BC00081E090E090937401809373018FEF9FEF29
:100BD000909378018093770180EE97E090937C0169
:100BE00080937B0182E091E061E070E04AE050E0B8
:100BF0002AE030E00E944404089585B7806885BFEC
:100C000085B7806885BF8FE781B98FEF87B90C946E
:100C10008A089093320180933101149826E328B911
:100C20001398139A149A009771F480EF90E09093C0
:100C30002E0180932D0180E491E090933001809308
:100C40002F0188E431C08130910571F480E491E096
:100C500090932E0180932D0180EF90E090933001CE
:100C600080932F0188EE20C08230910571F480EFCF
:100C700090E090932E0180932D0180E491E0909379
:100C8000300180932F0188E80FC0039781F480E43E
:100C900091E090932E0180932D0180EF90E090934E
:100CA000300180932F0188E288B91398139A149821
:100CB0008AE288B91398139A149A18B81398139A59
:100CC00018B81398139A80912D0190912E010197D5
:100CD00098B91398139A80912D01815088B913986F
:100CE000139A14988BE288B91398139A149A18B827
:100CF0001398139A18B81398139A80912F01909112
:100D00003001019798B91398139A80912F0181505F
:100D100088B91398139A08950F931F93CF93DF9375
:100D2000CDB7DEB728970FB6F894DEBF0FBECDBFA4
:100D3000E22F2983F32F3A834B835C83462F6D8305
:100D4000572F7E838F8398879F01EB81FC81BA01A7
:100D5000AF81B88514988AE288B91398139A149AC7
:100D600038B91398139A28B91398139AF8B91398A5
:100D7000139AE8B91398139A14988BE288B91398C8
:100D8000139A149A78B91398139A68B91398139A06
:100D9000B8B91398139AA8B91398139A14988CE2B7
:100DA00088B91398139A149AA9010CC018B913980A
:100DB000139A08B91398139A0196A817B907B0F7B0
:100DC0004F5F5F4FE417F50710F0CB01F6CF289681
:100DD0000FB6F894DEBF0FBECDBFDF91CF911F914C
:100DE0000F9108950F931F93CF93DF93CDB7DEB785
:100DF00028970FB6F894DEBF0FBECDBFA22F298370
:100E0000B32F3A834B835C83462F6D83572F7E83AA
:100E10008F839887F8019D01AB81BC81BA010F8156
:100E2000188514988AE288B91398139A149A38B9D5
:100E30001398139A28B91398139AB8B91398139A58
:100E4000A8B91398139A14988BE288B91398139A37
:100E5000149A78B91398139A68B91398139A18B911
:100E60001398139A08B91398139A14988CE288B9B6
:100E70001398139A149AA9010FC0218128B91398C5
:100E8000139A228128B934961398139A0196081759
:100E9000190798F74F5F5F4FA417B50710F0CB0104
:100EA000F6CF28960FB6F894DEBF0FBECDBFDF9108
:100EB000CF911F910F9108950F931F93CF93DF93BD
:100EC000CDB7DEB728970FB6F894DEBF0FBECDBF03
:100ED00010923401109233011092360110923501B4
:100EE0001A82198280912D0190912E010197482F2D
:100EF0009C838B831E821D8280912F0190913001F3
:100F0000019798878F830091390110913A0120E071
:100F10003A815C8160E07E8198850E948C062896EB
:100F20000FB6F894DEBF0FBECDBFDF91CF911F91FA
:100F30000F910895EF92FF920F931F93CF93DF933A
:100F4000F0913301E0913401409135015091360127
:100F50008D30D1F41092340110923301485F5F4F0D
:100F6000509336014093350180912F0190913001CB
:100F70004817590708F4B4C0DF91CF911F910F9122
:100F8000FF90EF900C945C07982F90529F3508F0DB
:100F9000A7C0BA01695F7F4F25E0829FC00111247D
:100FA0008452904014982BE228B91398139A149AFB
:100FB00058B91398139A48B91398139A78B9139893
:100FC000139A68B91398139A2F2F3E2FE90124968C
:100FD000EAE2FE2EFCE2EF2E821B930B38C0F8B83B
:100FE0001398139A149A38B91398139A28B9139826
:100FF000139A38B91398139A28B91398139A149816
:10100000E8B81398139A149AFC01E20FF31FE491C5
:10101000DA01F1E017C01F2F1E2319F000913801EB
:1010200002C000913A0108B91398139A112319F0DC
:101030001091370102C01091390118B91398139A11
:101040001196FF0F6A177B0730F72F5F3F4F1498F9
:10105000C217D30708F0C3CF8AE288B91398139A4E
:10106000149A38B91398139A28B91398139A38B95F
:101070001398139A28B91398139A14988CE288B984
:101080001398139A149A0CC080913A0188B9139856
:10109000139A8091390188B91398139A4F5F5F4F63
:1010A0006417750788F78091330190913401069693
:1010B000909334018093330120912D0130912E01C2
:1010C0008217930768F010923401109233018091D7
:1010D0003501909136010896909336018093350141
:1010E000DF91CF911F910F91FF90EF9008951F9383
:1010F000CF93DF93EC0110E003C00E949A071F5FBB
:10110000FE01E10FF11D80818111F7CFDF91CF91B9
:101110001F91089512982FE789EA93E021508040AB
:101120009040E1F700C00000129A2FE789EA93E0AF
:10113000215080409040E1F700C00000149A139ABB
:10114000159A10981198169A149888E288B91398ED
:10115000139A149A149881E188B91398139A149ADF
:101160002FE782E392E0215080409040E1F700C0F9
:10117000000014988BEC88B91398139A149A81E0A4
:1011800088B91398139A149880EC88B91398139A15
:10119000149A86E288B91398139A88E088B913984C
:1011A000139A149881EC88B91398139A149A80E1D1
:1011B00088B91398139A149885EC88B91398139AE0
:1011C000149A85E388B91398139A8EE388B9139813
:1011D000139A149886E388B91398139A149A88E49A
:1011E00088B91398139A149880EB88B91398139AB6
:1011F000149A8AE488B91398139A149881EB88B9E1
:101200001398139A149A18B81398139A8BE188B903
:101210001398139A149886EB88B91398139A149A12
:10122000E9E6F1E0819188B91398139A21E0ED364F
:10123000F207C1F7149887EC88B91398139A149A97
:1012400085EB88B91398139A149886EF88B9139888
:10125000139A149AE5E6F1E0819188B91398139AEC
:1012600081E0E836F807C1F7149882EF88B913983F
:10127000139A149A18B81398139A149886E288B996
:101280001398139A149A81E088B91398139A1498B2
:101290008AE388B91398139A149A85E588B9139844
:1012A000139A149880EE88B91398139A149AE5E566
:1012B000F1E0819188B91398139A91E0E436F90727
:1012C000C1F7149881EE88B91398139A149AE5E43B
:1012D000F1E0819188B91398139A21E0E435F2077F
:1012E000C1F714988AE288B91398139A149AE0E423
:1012F000F1E0819188B91398139A81E0E434F807FA
:10130000C1F714988BE288B91398139A149AEBE3F7
:10131000F1E0819188B91398139A91E0EF33F907BE
:10132000C1F7149884E388B91398139A149A1498FF
:1013300084EB88B91398139A149A18B81398139ACF
:10134000149887EB88B91398139A149A87E088B990
:101350001398139A14988CE288B91398139A149AD4
:1013600020EF30E00BC018B81398139A18B81398F0
:10137000139A0197C1F72150310919F080E491E0E7
:10138000F2CF149889E288B91398139A149A2FEB24
:1013900084ED91E0215080409040E1F700C00000D2
:1013A000119A089597FB092E07260AD077FD04D0DD
:1013B0000CD006D000201AF4709561957F4F0895E7
:1013C000F6F7909581959F4F0895AA1BBB1B51E19D
:1013D00007C0AA1FBB1FA617B70710F0A61BB70BA5
:1013E000881F991F5A95A9F780959095BC01CD014A
:1013F00008954FE651E00E94FE090895FA01A19177
:10140000B081009719F41097E1F0CD01DC01CD0116
:101410000D90002011F4C00113C0FB012191222383
:1014200019F02015D9F7F3CFFB012191201519F4FC
:101430001E92119606C02223C1F70D900020A1F73D
:0E144000D001FA01A193B0830895F894FFCF74
:10144E003B00746573743B746573323B7465733320
:10145E000000000001000000000000780300000002
:10146E0000000200000000640300000000F00040D5
:10147E0001000000000000FFFF00000000013F001F
:10148E00000000EF000025270510093A784D0518D9
:10149E000D383A1F001F1A180A0F064587320A0721
:0E14AE000207050000010000000A822700006E
:00000001FF
